S00D000053594E54482E7372656381
S11300000C94BB040C94D8040C94D8040C94D80419
S11300100C94D8040C94D8040C94D8040C94D804EC
S11300200C94D8040C94D8040C94D8040C949F0514
S11300300C94D8040C94D8040C94D8040C94D804CC
S11300400C94D8040C94D8040C94D8040C94D804BC
S11300500C94D8040C94D8040C94D8040C94D804AC
S11300600C94D8040C94D804F9050806170626063F
S113007035064406530662067006525249494646FE
S11300804691910000000000575741565645456679
S11300906D6D747420101000000000000101000157
S11300A0010000401F1F00000040401F1F0000000F
S11300B001010000080000646461747461616D00F2
S11300C0000000008383909095939397979EA2A23B
S11300D0A2A2ACC0C0D6D6E7EDEDEDEDF6FFFFF47D
S11300E0F4E1E1D6C5C5A2A28171716E6E757D7D04
S11300F0868698AEAEB7B7B3AFAFB3B3B9B9B9AA42
S1130100AA98979794948070706D6D6C6161525247
S1130110444434262619190E030301010B14141840
S1130120181C22222929364B4B6363757F7F8787EE
S11301308F939392929296969E9EA6A8A8A4A49F0B
S1130140A4A4ACACA9A99A89897B7B6F656560601E
S113015065747483838B909093939694948C8C7E23
S11301606F6F61615345453F3F3D39393A3A444ADF
S11301704A48484C5858666673525249494646465E
S11301809191000000000057574156564545666D51
S11301906D747420101000000000000101000101C2
S11301A00000401F1F00000040401F1F000000010E
S11301B0010000080000646461747461616D0000F2
S11301C0000000808086868B8F8F93939598989BF0
S11301D09B9EA2A2A6A6ABB0B0B4B4B9BDBDC1C12A
S11301E0C6C6CBCFCFD5D5DAE0E0E6E6ECF1F1F642
S11301F0F6FAFDFDFEFEFEFDFDF7F7EFE2E2CFCFDE
S1130200B89D9D81816956564A4A423E3E3A3A38E3
S1130210383531312E2E2A282826262729292C2C18
S11302203136363D3D4349494E4E52555557575642
S1130230545450504A414137372C22221A1A171964
S1130240192020292935424250505F6D6D797984F7
S11302508D8D9494999C9C9E9E9E9E9E9C9C9A9708
S1130260979494908B8B8686827D7D787874717157
S11302706E6E6E6E6E717175525249494646469164
S113028091000000000057574156564545666D6D74
S1130290747420101000000000000101000101002E
S11302A000401F1F00000040401F1F00000001010C
S11302B00000080000646461747461616D000000F2
S11302C000009191E2E2FAFDFDFFFFFDFBFBF7F771
S11302D0F4EFEFECECE7E4E4DFDFDCD7D7D3D3CE05
S11302E0CECBC6C6C2C2BEBABAB6B6B2AEAEA9A963
S11302F0A5A1A19D9D99959590908D8888848480D1
S11303007C7C7878736F6F6B6B6763635F5F5A5A3B
S11303105752524F4F49474742424341416363AAB0
S1130320BCBCBCBCBBB6B6B3B3AFABABA6A6A39EBA
S11303309E9A9A9692928D8D8A858581817D79790E
S1130340757570706C68686464605C5C5757544F72
S11303504F4B4B4743433F3F3B363632322E2A2ADC
S11303602626211E1E19191611110E0E0907070241
S11303700201000003030552524949464646919141
S1130380000000000057574156564545666D6D7490
S113039074201010000000000001010001010000A1
S11303A0401F1F00000040401F1F0000000101000B
S11303B000080000646461747461616D00000000F1
S11303C00083839898B1CACAE0E0F0FAFAFFFFFF0D
S11303D0FAFAF0F0E1CDCDB3B3977D7D6767595953
S11303E0504F4F575765757583838D949499999E93
S11303F0A0A09E9E988C8C7A7A68565648483F3ABC
S11304003A3A3A3E46464F4F5963636E6E7B7B875A
S1130410919199999FA1A1A0A09B959590908B866D
S11304208681817D7A7A78787778787A7A7E828202
S11304308585888989898987858582827F7B7B7682
S11304407671716E6B6B6A6A6A6A6A6C6C6E7070D4
S11304507272737373727273737373737475757565
S1130460757575757373716F6F6C6C6865656060B5
S11304705E5D5D6161678080808181828283838427
S11304808585868687888889898A8B8B8C8D8E8ED4
S11304908F90919293949697999A9B9D9EA0A2A4D3
S11304A0A6A8AAADB0B4B8BBBFC4C8CCD0D4D8DB5E
S11304B0DFE2E5E8EAEDEFF1F3F5F7F8FAFBFCFD2E
S11304C0FEFFFFFFFFFFFFFEFEFCFBFAF8F6F4F170
S11304D0EEEBE9E5E1DDD8D4D0CBC7C1BCB7B3AD11
S11304E0A8A29D97928D87817C76716C67625C5718
S11304F0524E4945403B3734302C2825211F1C19C6
S1130500161412100E0C0A08070604030202010056
S113051000000000000000000101020203040405C1
S1130520060607080808090909090A0A0B0C0D0E32
S1130530101113141617191B1D1E202224272A2DEF
S11305403033363A3D404245484B4D50525456584C
S11305505A5C5D5F606264656668696A6B6C6D6E47
S11305606F7071727374757676777879797A7B7C2B
S11305707C7D7D7E7F7F808386898C8F9295989BFE
S11305809EA1A4A7AAADB0B3B6B9BBBEC1C3C6C928
S1130590CBCED0D2D5D7D9DBDEE0E2E4E5E7E9EB98
S11305A0ECEEEFF1F2F4F5F6F7F8F9FAFBFBFCFDEB
S11305B0FDFEFEFEFEFEFEFEFEFEFEFEFDFDFCFB5F
S11305C0FBFAF9F8F7F6F5F4F2F1F0EEEDEBE9E702
S11305D0E6E4E2E0DEDCD9D7D5D3D0CECBC9C6C4BD
S11305E0C1BEBCB9B6B3B0ADAAA8A5A29F9C98954C
S11305F0928F8C898683807D797673706D6A676447
S1130600615E5B5855524F4C494744413E3C393733
S113061034322F2D2A28262422201D1C1A181614A1
S11306201311100E0D0C0A09080706050404030231
S1130630020101010101010101010101020203049E
S11306400405060708090A0B0D0E0F1112141617DC
S1130650191B1D1F212325282A2C2F313436393B01
S11306603E414346494C4F5154575A5D6063666955
S11306706C707376797CFFFEFDFCFBFAF9F8F7F6F3
S1130680F5F4F3F2F1F0EFEEEDECEBEAE9E8E7E68E
S1130690E5E4E3E2E1E0DFDEDDDCDBDAD9D8D7D67E
S11306A0D5D4D3D2D1D0CFCECDCCCBCAC9C8C7C66E
S11306B0C5C4C3C2C1C0BFBEBDBCBBBAB9B8B7B65E
S11306C0B5B4B3B2B1B0AFAEADACABAAA9A8A7A64E
S11306D0A5A4A3A2A1A09F9E9D9C9B9A999897963E
S11306E09594939291908F8E8D8C8B8A898887862E
S11306F08584838281807F7E7D7C7B7A797877761E
S11307007574737271706F6E6D6C6B6A696867660D
S11307106564636261605F5E5D5C5B5A59585756FD
S11307205554535251504F4E4D4C4B4A49484746ED
S11307304544434241403F3E3D3C3B3A39383736DD
S11307403534333231302F2E2D2C2B2A29282726CD
S11307502524232221201F1E1D1C1B1A19181716BD
S11307601514131211100F0E0D0C0B0A09080706AD
S11307700504030201007F81838587898B8D8F9116
S1130780939597999B9D9FA1A3A5A7A9ABADAFB145
S1130790B3B5B7B9BBBDBFC1C3C5C7C9CBCDCFD135
S11307A0D3D5D7D9DBDDDFE1E3E5E7E9EBEDEFF125
S11307B0F3F5F7F9FBFDFFFDFBF9F7F5F3F1EFEDC9
S11307C0EBE9E7E5E3E1DFDDDBD9D7D5D3D1CFCD65
S11307D0CBC9C7C5C3C1BFBDBBB9B7B5B3B1AFAD55
S11307E0ABA9A7A5A3A19F9D9B99979593918F8D45
S11307F08B89878583817F7D7B79777573716F6D35
S11308006B69676563615F5D5B59575553514F4D24
S11308104B49474543413F3D3B39373533312F2D14
S11308202B29272523211F1D1B19171513110F0D04
S11308300B090705030101030507090B0D0F11132C
S11308401517191B1D1F21232527292B2D2F313364
S11308503537393B3D3F41434547494B4D4F515354
S11308605557595B5D5F61636567696B6D6F717344
S11308707577797B7D7FFFFFFFFFFFFFFFFFFFFFA2
S1130880FFFFFFFFFFFFFFFFFFFFFFFFFFFFFFFF74
S1130890FFFFFFFFFFFFFFFFFFFFFFFFFFFFFFFF64
S11308A0FFFFFFFFFFFFFFFFFFFFFFFFFFFFFFFF54
S11308B0FFFFFFFFFFFFFFFFFFFFFFFFFFFFFFFF44
S11308C0FFFFFFFFFFFFFFFFFFFFFFFFFFFFFFFF34
S11308D0FFFFFFFFFFFFFFFFFFFFFFFFFFFFFFFF24
S11308E0FFFFFFFFFFFFFFFFFFFFFFFFFFFFFFFF14
S11308F0FFFFFFFFFFFF00000000000000000000FA
S113090000000000000000000000000000000000E3
S113091000000000000000000000000000000000D3
S113092000000000000000000000000000000000C3
S113093000000000000000000000000000000000B3
S113094000000000000000000000000000000000A3
S11309500000000000000000000000000000000093
S11309600000000000000000000000000000000083
S113097000000000000011241FBECFEFD8E0DEBF4E
S1130980CDBF12E0A0E0B1E0E4E9F0E102C00590DF
S11309900D92AE3FB107D9F725E0AEEFB2E001C04A
S11309A01D92AC34B207E1F70E94EE040C9448089F
S11309B00C9400001092C5008FE18093C40088E17C
S11309C08093C10086E08093C2000895E0ECF0E0DB
S11309D080818823ECF78091C6000895CF93DF933C
S11309E0CDB7DEB7DA950FB6F894DEBF0FBECDBF34
S11309F080E0E0E0F1E0DE01119601900D928A952D
S1130A00E1F70E94720580E090E00E94D3058FE137
S1130A1090E00E94DA04E12CF12C0E94E604082FF5
S1130A200E94E604C82E0E94E604D82E902F9295C8
S1130A309F70993071F50F7010E0E016F10619F00F
S1130A40C8010E94D305D1100CC0EC2DF0E0EE0FCC
S1130A50FF1FE050FE4F808191810E94940778012E
S1130A60DCCFED2DF0E0EE0FFF1F81E090E08C0F66
S1130A709D1FE80FF91F60817181EC2DF0E0EE0FEE
S1130A80FF1FE050FE4F808191810E94640778012E
S1130A90C4CF9B30E1F495E1C91205C090E0019602
S1130AA00E94CE05BACF86E1C81206C08D2D90E013
S1130AB001960E94C505B1CF0E947F0780E090E0B7
S1130AC00E94C50580E49FE10E94CE05A6CF0E9446
S1130AD07F0780E090E00E94C50580E49FE10E94CA
S1130AE0CE059BCFF89488E084B9A0EBB0E01C92CB
S1130AF0E1EBF0E0108281EA8C9381E080838FEF58
S1130B008093B30010928000E1E8F0E0108210922C
S1130B1085001092840080818960808380ED97E055
S1130B209093890080938800EFE6F0E080818260F2
S1130B3080831092090510920805789408951F92F5
S1130B400F920FB60F9211242F933F934F935F93FD
S1130B506F937F938F939F93AF93BF93EF93FF9381
S1130B600E948E068093B300FF91EF91BF91AF91E5
S1130B709F918F917F916F915F914F913F912F91B1
S1130B800F900FBE0F901F90189567E070E00E94C1
S1130B901A08709305036093040308959093030364
S1130BA080930203089510924B0510924A05AAE01F
S1130BB0B5E04AE455E021E030E013961C921E9221
S1130BC0129711961C921E9217961C921E921697BB
S1130BD015963C932E9314971896A417B50769F7A6
S1130BE08930910508F08BC0FC01EC5CFF4F0C943C
S1130BF02E08E6E7F5E0A8E0B3E028E035E08491CC
S1130C0090E08D939D9331962A173B07C1F7089581
S1130C10E6E7F8E0A8E0B3E028E035E0849190E06E
S1130C208D939D9331962A173B07C1F70895E6E704
S1130C30F7E0A8E0B3E028E035E0849190E08D93FC
S1130C409D9331962A173B07C1F70895E6E7F6E02E
S1130C50A8E0B3E028E035E0849190E08D939D9383
S1130C6031962A173B07C1F70895E6E7F4E0A8E0B8
S1130C70B3E028E035E0849190E08D939D93319624
S1130C802A173B07C1F70895E7E7F3E0A8E0B3E0CC
S1130C9028E035E0849190E08D939D9331962A1756
S1130CA03B07C1F70895E8E7F2E0A8E0B3E028E0E5
S1130CB035E0849190E08D939D9331962A173B07FC
S1130CC0C1F70895E9E7F1E0A8E0B3E028E035E0F2
S1130CD0849190E08D939D933196A217B307C1F749
S1130CE0EAE7F0E0A8E0B3E028E035E0849190E0A2
S1130CF08D939D933196A217B307C1F70895E6E744
S1130D00F5E0A8E0B3E028E035E0849190E08D932D
S1130D109D9331962A173B07C1F708950F931F93AC
S1130D20CF93DF93809100039091010301969093F8
S1130D3001038093000380910203909103032091A7
S1130D40000330910103AC01440F551F880F991F14
S1130D50880F991F880F991F840F951F8217930777
S1130D600CF060C08091FE029091FF02892BD1F4B7
S1130D708091060390910703019690930703809353
S1130D800603209106033091070380910403909198
S1130D9005038217930734F481E090E09093FF02F7
S1130DA08093FE028091FE029091FF020197E9F484
S1130DB08091060390910703019790930703809312
S1130DC0060380910403909105032091060330915A
S1130DD007039195819591092817390734F482E026
S1130DE090E09093FF028093FE028091FE02909126
S1130DF0FF02029799F480910603909107030196EC
S1130E009093070380930603809106039091070350
S1130E10892B21F41092FF021092FE02109201031A
S1130E2010920003C0914A05D0914B051C161D0673
S1130E30D4F5EAE0F5E0CC0FDD1FCC0FDD1FCC0FBD
S1130E40DD1FC65FDA4F20E030E004E610E0DF018A
S1130E50409106035091070380819181840F951F6F
S1130E6042815381840F951F811544E694071CF435
S1130E709383828303C094569383828312968D91C5
S1130E809C911397B8010E941A08DB01AA0FBB1F9B
S1130E90A85FBC4F8D919C91280F391F3896EC1791
S1130EA0FD07A9F602C020E030E0C90199230CF443
S1130EB00796959587959595879595958795DF914F
S1130EC0CF911F910F91089520914A0530914B05C0
S1130ED0283031059CF4F901EE0FFF1FEE0FFF1FC0
S1130EE0EE0FFF1FE65FFA4F91838083758364835F
S1130EF02F5F3F4F30934B0520934A05089510927E
S1130F004B0510924A05EAE0F5E02AE435E081E079
S1130F1090E0138212821182108295838483389622
S1130F20E217F307B1F708959F92AF92BF92CF9261
S1130F30DF92EF92FF920F931F93CF93DF93CDB77E
S1130F40DEB7C054D1090FB6F894DEBF0FBECDBFD3
S1130F50C0904A05D0904B051C141D040CF057C0DA
S1130F60AE014F5F5F4F7E0121E4E20EF11CFA01F6
S1130F7013821282118210823896EE15FF05C1F792
S1130F806AE075E09601220F331F220F331F220FF0
S1130F90331FD901A65FBA4F5D019B0100E010E049
S1130FA0D901ED91FC91E817F907B9F0D801AA0F1E
S1130FB0BB1FAA0FBB1FAA0FBB1FE1E0F0E0EC0FA1
S1130FC0FD1FAE0FBF1F6894992493F8F901019097
S1130FD00D929A94E1F70F5F1F4F285F3F4FA216BF
S1130FE0B306F1F688E0FA01DB0101900D928A95CF
S1130FF0E1F7485F5F4F685F7F4F4E155F0591F7DC
S1131000F1E0CF1AD108D0924B05C0924A05C05CDA
S1131010DF4F0FB6F894DEBF0FBECDBFDF91CF9187
S11310201F910F91FF90EF90DF90CF90BF90AF9002
S11310309F90089597FB072E16F4009407D077FD30
S113104009D00E94340807FC05D03EF490958195A0
S11310509F4F0895709561957F4F0895EE0FFF1F80
S11310600590F491E02D0994AA1BBB1B51E107C024
S1131070AA1FBB1FA617B70710F0A61BB70B881F24
S1131080991F5A95A9F780959095BC01CD010895B3
S1071090F894FFCFFE
S11310940500050005000500050005000500050020
S11310A40500050005000500050005000500050010
S11310B40500050005000500050005000500050000
S11310C405000500050005000500050005000500F0
S11310D404000400040004000400040004000400E8
S11310E404000400040004000400040004000400D8
S11310F404000400040004000400040004000400C8
S113110404000400040004000400040004000400B7
S113111403000300030003000300030003000300AF
S1131124030003000300030003000300030003009F
S11311340200020002000200020002000200020097
S11311440200020002000200020002000200020087
S1131154010001000100010001000100010001007F
S1131164010001000100010001000100010001006F
S11311740000000000000000000000000000000067
S11311840000000000000000000000000000000057
S11311941A001B001D001F00200022002400270049
S11311A429002C002E003100340037003A003E00A0
S11311B44100450049004E00530058005D006200A0
S11311C468006E0075007C0083008B0094009C0012
S11311D4A600B000BA00C500D100DD00EA00F800A2
S11311E407011701280139014C01600171018B01C8
S11311F4A201BB01D501F1010F022E0250027302B8
S11312049802C002E902160345037603AB03E30321
S11312141E045D04A004E60430058005D3052C06F1
S11312248A06ED065707C7073D08BB083F09CC09E2
S1131234610A000BA70B580C140DDB0DAE0E8E0FB8
S11312447B1076117F129913C31400164E17B1182C
S1131254291AB71B5D1D1C1FF620EC22FF2433271B
S11312648729002C9D2E633153346F37BB3A393EA2
S1131274EC41D845FF49664E0F5300583B5DC662A6
S1111284A668DF6E7775737CD983B08BFF93F9
S9030000FC
